:100003007265636569766564206461746100736C0D
:0B00130061766500736C617665320059
:09025100010E00010800010F007C
:01001E0022BF
:01001F0022BE
:0100200022BD
:07026300AE071FEE70FA2246
:050228001201BB7FFA8A
:10022D00E4FEEEC39F5009E4FD0DBD6EFC0E80F2A1
:01023D00229E
:1001BB00C2ACC2A9C2B4C2B3C2B28F807F05120255
:1001CB0063D2B47F1412022DC2B412022DD2ACD260
:0201DB00A92257
:10018C00AC07C2ACC2A9C2B47F0512022DC2B31215
:10019C00022DD2B212022D8C807F0A12022DD2B403
:0F01AC0012022DC2B47F1412022DD2ACD2A9229E
:1001DD007F0E1202287F301202287F061202287F1E
:0901ED00011201BB7FFA02022D90
:1001F600E589540F4420F589758DFA758BFA758754
:0902060080439850D28ED2AC2244
:0300230002014592
:10014500C0E0C0D075D000C00030980BC2987409CB
:10015500250FF8A699050FE509B4731CE50AB46CDB
:1001650017E50BB46112E50CB4760DE50DB4650821
:10017500E50EB43103750801E50FB40503750F00ED
:07018500D000D0D0D0E03221
:08025B008F993099FDC2992230
:10023E0012020FFF600C12025B740129F9E43AFA04
:03024E0080EE221D
:10002600E4F510D2A6F580C2A6D2A7F580C2A71223
:1000360001F61201DDD2AF7F801201BBE4F510E5B7
:100046001090000393FF12018C7F0A12022D0510F7
:10005600E510C3940A40E8E508B4011FE4F5087BFF
:10006600FF7A00790312023E7F981201BB7F0A12C3
:10007600022D900003E493FF12018C7FFA12022DE9
:1000860012022D12022D12022D12022D7F8812014C
:10009600BBE4F510E510C3940550BC7F1412022D85
:1000A60074092510F8E6FF12018C7F0A12022D054D
:0300B6001080E1D6
:030000000200B942
:0C00B900787FE4F6D8FD7581100201008C
:10020F00BB010689828A83E0225002E722BBFE02ED
:09021F00E32289828A83E4932220
:1000C500020026E493A3F8E493A34003F68001F22B
:1000D50008DFF48029E493A3F85407240CC8C3333C
:1000E500C4540F4420C8834004F456800146F6DF0B
:1000F500E4800B0102040810204080900251E47E48
:10010500019360BCA3FF543F30E509541FFEE493FF
:10011500A360010ECF54C025E060A840B8E493A3C6
:10012500FAE493A3F8E493A3C8C582C8CAC583CAF1
:10013500F0A3C8C582C8CAC583CADFE9DEE780BEA9
:01025A0000A3
:00000001FF
