:030000000208E310
:0C08E300787FE4F6D8FD75813802092A00
:0A0AF30008200000000000000000D1
:100CFD00D2A000D2A10000000000C2A000000000A0
:060D0D0000C2A10000225B
:0D0D5E00C2A00000D2A10000D2A00000221F
:0B0C5200120BA4120C5DAF05120BA4E6
:100C5D00E4FFD2A1000030A0070FEFC394FA40F6D5
:040C6D00C2A1000020
:010C71002260
:100BA400E4FEC2A100000000EF3392A000000000A8
:100BB400D2A100000000EF25E0FF0EBE08E4C2A1B0
:060BC4000000D2A00000B9
:010BCA002208
:070D9B00C2A1120DA2D2A0BB
:030DA2000000222C
:0C0D7800D2A0D2A1120DA2C2A0020DA2B6
:0C0D8400C2A0D2A1120DA2D2A0020DA2AA
:0B0C1000120C31120C1BAF05120C314E
:100C1B00E4FFD2A1120DA230A0070FEFC394FF4047
:060C2B00F6C2A1020DA2B9
:100C3100E4FEC2AFC2A1EF25E0FF120DA292A01205
:100C41000DA2D2A1120DA20EBE08E9120D9BD2AFC8
:010C51002280
:100BCB00E4FFC2AF120D9BFED2A1120DA2EF25E0E6
:100BDB00FFA2A0E4334FFFC2A1120DA20EBE08E884
:020BEB00D2AF87
:010BED0022E5
:020C7200AD07CC
:100C7400C2AF120D787FA0120C10120D787FA11252
:0D0C84000C31120C1B120BCB120D84D2AFE1
:010C91002240
:10000E00AC07C2AF120D787FA0120C31120C1BAFD1
:0D001E0004120C10120D84120DA2D2AF229C
:100B7A00E4FFFEC2A100000000D2A000000000EFC6
:100B8A0025E0FF30A003430701D2A100000000C204
:090B9A00A1000000000EBE08E6F7
:010BA300222F
:100CCD00AC07120CFD7FA0120BA4120C5DAF041229
:080CDD000C52120D5E020DA283
:020CB100AD078D
:100CB300120CFD7FA0120C52120CFD7FA1120BA48B
:090CC300120C5D120B7A120D5E99
:010CCC002205
:060C9200C2A2C2A4D2A21E
:100C98007E080000EF30E004D2A38002C2A3EFC3B5
:080CA80013FFD2A4C2A4DEEA8E
:010CB0002221
:100BEE0000007E08EFC313FF0000000030A3054392
:100BFE000780800353077FD2A40000C2A40000DE4A
:010C0E00E302
:010C0F0022C2
:0D0D6B00120C92AF05120C98C2A2D2A42265
:0A0D9000120C92120BEEC2A2D2A4C4
:010D9A002236
:1009D6007FC1120D90EF64F2604DE4FD7F8E120D23
:1009E6006B7D137F8C120D6B7D057F88120D6B7DE1
:1009F600107F86120D6B7D047F8A120D6B7D107F32
:100A060084120D6B7D497F82120D6BE4FD7F80128F
:100A16000D6B7DA57F90120D6B7DF27FC0120D6B65
:080A26007D807F8E120D6B2212
:100B4F007F81120D908F287F83120D908F297F85C3
:100B5F00120D908F2A7F87120D908F2B7F89120D88
:0B0B6F00908F2C7F8D120D908F2E2296
:040AFD0002350000BE
:100B2200E4F52FC2A0C2A112002E120D3C120CE558
:100B32001209D6D2AFC3E53894F4E537940140F5F3
:0D0B4200E4F537F53812059F120B4F80E8DF
:100D3C005389F0438901758CF8758A30D28CD2A90D
:010D4C002284
:03000B00020D29BA
:100D2900C0E0758CF8758A300538E53870020537EA
:030D3900D0E032D5
:100A2E00B3F5CABCBBAF00496E76656E74656420C3
:100A3E0062793A00CBE5BEB0B7E500D5C5C3F4D5B3
:100A4E00DC00D3E0CAE9C5F400D6C7C4DCB5E7B113
:100A5E00ED00BBB6D3ADC0CFCAA6D6B8B5BC00BAF2
:100A6E00C4B5E7C1BF3A00B9A6C2CA00576800C4F0
:080A7E00EA00D4C200C8D50053
:080B0100060F303033302E30B6
:100ABD008F34C2ACC2A9C2B47F0A120003C2B37F85
:100ACD000A120003C2B27F0A1200038534807F0A26
:100ADD00120003D2B47F0A120003C2B47F0A1200BF
:060AED0003D2ACD2A922E5
:060A8600C4540F2430FFF0
:100A8C008F34C2ACC2A9C2B47F0A120003C2B37FB6
:100A9C000A120003D2B27F0A1200038534807F0A47
:100AAC00120003D2B47F0A120003C2B4D2ACD2A992
:010ABC002217
:10002E00E4F530D2A6F580C2A6D2A7F580C2A77F8E
:10003E000C120ABD7F64120D4D7F30120ABD7F0A6D
:10004E00120D4D7F06120ABD7F0A120D4D7F011251
:10005E000ABD7F0A120D4D7F92120ABDE4F530E5FE
:10006E0030900A2E93FF6007120A8C053080F07FC5
:10007E00FA120D4D7FFA120D4D7FFA120D4D7FFAC9
:10008E00120D4D7FFA120D4D7FFA120D4D7FFA12A1
:10009E000D4D7FFA120D4D7FFA120D4D7FFA120D96
:1000AE004D7FFA120D4D7FFA120D4D7FFA120D4D46
:1000BE007FFA120D4D7FFA120D4D7FFA120D4D7F04
:1000CE00FA120D4D7FFA120D4D7FFA120D4D7FFA79
:1000DE00120D4D7FFA120D4D7FFA120D4D7FFA1251
:1000EE000D4D7FFA120D4D7FFA120D4D7FFA120D46
:1000FE004D7FFA120D4D7FFA120D4D7FFA120D4DF6
:10010E007FFA120D4D7FFA120D4D7FFA120D4D7FB3
:10011E00FA120D4D7FFA120D4D7FFA120D4D7FFA28
:10012E00120D4D7FFA120D4D7FFA120D4D7FFA1200
:10013E000D4D7FFA120D4D7FFA120D4D7FFA120DF5
:10014E004D7FFA120D4D7FFA120D4D7FFA120D4DA5
:10015E007FFA120D4D7FFA120D4D7FFA120D4D7F63
:10016E00FA120D4D7FFA120D4D7FFA120D4D7FFAD8
:10017E00120D4D7FFA120D4D7FFA120D4D7FFA12B0
:10018E000D4D7FFA120D4D7FFA120D4D7FFA120DA5
:10019E004D7FFA120D4D7FFA120D4D7FFA120D4D55
:1001AE007FFA120D4D7FFA120D4D7FFA120D4D7F13
:1001BE00FA120D4D7FFA120D4D7FFA120D4D7FFA88
:1001CE00120D4D7FFA120D4D7FFA120D4D7F8112D9
:1001DE000ABDE4F530E530900A3593FF6007120A48
:1001EE008C053080F07F92120ABDE4F530E5309038
:1001FE000A4293FF6007120A8C053080F07F8A1244
:10020E000ABDE4F530E530900A4993FF6007120A03
:10021E008C053080F07F9A120ABDE4F530E53090FF
:10022E000A5093FF6007120A8C053080F07FFA1295
:10023E000D4D7FFA120D4D7FFA120D4D7FFA120DF4
:10024E004D7FFA120D4D7FFA120D4D7FFA120D4DA4
:10025E007FFA120D4D7FFA120D4D7FFA120D4D7F62
:10026E00FA120D4D7FFA120D4D7FFA120D4D7FFAD7
:10027E00120D4D7FFA120D4D7FFA120D4D7FFA12AF
:10028E000D4D7FFA120D4D7FFA120D4D7FFA120DA4
:10029E004D7FFA120D4D7FFA120D4D7FFA120D4D54
:1002AE007FFA120D4D7FFA120D4D7FFA120D4D7F12
:1002BE00FA120D4D7FFA120D4D7FFA120D4D7FFA87
:1002CE00120D4D7FFA120D4D7FFA120D4D7FFA125F
:1002DE000D4D7FFA120D4D7FFA120D4D7FFA120D54
:1002EE004D7FFA120D4D7FFA120D4D7FFA120D4D04
:1002FE007FFA120D4D7FFA120D4D7FFA120D4D7FC2
:10030E00FA120D4D7FFA120D4D7FFA120D4D7FFA36
:10031E00120D4D7FFA120D4D7FFA120D4D7FFA120E
:10032E000D4D7FFA120D4D7FFA120D4D7FFA120D03
:10033E004D7FFA120D4D7FFA120D4D7FFA120D4DB3
:10034E007FFA120D4D7FFA120D4D7FFA120D4D7F71
:10035E00FA120D4D7FFA120D4D7FFA120D4D7FFAE6
:10036E00120D4D7FFA120D4D7FFA120D4D7FFA12BE
:10037E000D4D7FFA120D4D7FFA120D4D7FFA120DB3
:10038E004D7FFA120D4D7FFA120D4D7FFA120D4D63
:10039E007FFA120D4D7FFA120D4D7FFA120D4D7F21
:1003AE00FA120D4D7FFA120D4D7FFA120D4D7FFA96
:1003BE00120D4D7FFA120D4D7FFA120D4D7F011267
:1003CE000ABD7F0A120D4D7F82120ABDE4F530E59B
:1003DE0030900A5793FF6007120A8C053080F07F29
:1003EE009A120ABDE4F530E530900A6093FF60077B
:1003FE00120A8C053080F07FFA120D4D7FFA120D25
:10040E004D7FFA120D4D7FFA120D4D7FFA120D4DE2
:10041E007FFA120D4D7FFA120D4D7FFA120D4D7FA0
:10042E00FA120D4D7FFA120D4D7FFA120D4D7FFA15
:10043E00120D4D7FFA120D4D7FFA120D4D7FFA12ED
:10044E000D4D7FFA120D4D7FFA120D4D7FFA120DE2
:10045E004D7FFA120D4D7FFA120D4D7FFA120D4D92
:10046E007FFA120D4D7FFA120D4D7FFA120D4D7F50
:10047E00FA120D4D7FFA120D4D7FFA120D4D7FFAC5
:10048E00120D4D7FFA120D4D7FFA120D4D7FFA129D
:10049E000D4D7FFA120D4D7FFA120D4D7FFA120D92
:1004AE004D7FFA120D4D7FFA120D4D7FFA120D4D42
:1004BE007FFA120D4D7FFA120D4D7FFA120D4D7F00
:1004CE00FA120D4D7FFA120D4D7FFA120D4D7FFA75
:1004DE00120D4D7FFA120D4D7FFA120D4D7FFA124D
:1004EE000D4D7FFA120D4D7FFA120D4D7FFA120D42
:1004FE004D7FFA120D4D7FFA120D4D7FFA120D4DF2
:10050E007FFA120D4D7FFA120D4D7FFA120D4D7FAF
:10051E00FA120D4D7FFA120D4D7FFA120D4D7FFA24
:10052E00120D4D7FFA120D4D7FFA120D4D7FFA12FC
:10053E000D4D7FFA120D4D7FFA120D4D7FFA120DF1
:10054E004D7FFA120D4D7FFA120D4D7FFA120D4DA1
:10055E007FFA120D4D7FFA120D4D7FFA120D4D7F5F
:10056E00FA120D4D7FFA120D4D7FFA120D4D7FFAD4
:10057E00120D4D7FFA120D4D7FFA120D4D7FFA12AC
:10058E000D4D7FFA120D4D7F01120ABD7F0A020D2D
:01059E004D0F
:10059F00E4F530F531F5327F80120ABD7F32120A51
:1005AF008C7F30120A8CE52E120A86E52E120A87EE
:1005BF00900A7DE493FF120A8C900A7EE493FF1257
:1005CF000A8CE52C120A86E52C120A87900A80E421
:1005DF0093FF120A8C900A81E493FF120A8CE52B89
:1005EF00120A86E52B120A87900A83E493FF120AF8
:1005FF008C900A84E493FF120A8C7F90120ABDE557
:10060F002A120A86E52A120A877F3A120A8CE529EE
:10061F00120A86E529120A877F3A120A8CE52812F8
:10062F000A86E528120A877F88120ABDE4F532E5AB
:10063F0032900A6D93FF6007120A8C053280F07FAB
:10064F0004120C728F337F05120C727530008F31CC
:10065F00E531753100F530E5332531F531E43530CD
:10066F00F530FEAF317C007D0A12096FEF7803CEB3
:10067F00C313CE13D8F9FBAA067C037DE8FF12093A
:10068F0081EF2430F5087C037DE8AF03AE02120939
:10069F00817E007F64CFCDCFCECCCE120981EF24E7
:1006AF0030F509AE30AF317C007D0A12096FEF785B
:1006BF0003CEC313CE13D8F9FBAA067C007D64FFCB
:1006CF001209817E007F0ACFCDCFCECCCE12098109
:1006DF00EF2430F50A7C007D0AAF03AE02120981C8
:1006EF00ED2430F50B750C2EAE30AF317C007D64F0
:1006FF0012096FEF7803CEC313CE13D8F9FF7C0026
:10070F007D0A120981ED2430F50DAE30AF317C0337
:10071F007DE812096FEF7803CEC313CE13D8F9FF1C
:10072F007C007D0A120981ED2430F50EE4F5327458
:10073F00082532F8E6FF120A8C0532E532C394071A
:10074F0040ED900A7AE493FF120A8C900A7BE493AF
:10075F00FF120A8C7F98120ABDE4F532E532900A37
:10076F007593FF6007120A8C053280F07F3A120AE8
:10077F008CE4F532740F2532F8E6FF120A8C05323D
:0C078F00E532C3940640ED7F57020A8C4F
:100D1300EF1FAA0670011E4A600B7D6EEDD394008F
:050D230040EE1D80F709
:010D280022A8
:07000300AE071FEE70FA22A8
:100D4D00E4FEEEC39F5009E4FD0DBD6EFC0E80F276
:010D5D002273
:100B090002190000021E0000021B0000011500016D
:080B190017000116000118008D
:100CE500E4F5CBF5CA85CBCD85CACCD2CBD2C9D25A
:080CF500C8F5C9C2CAD2AD2244
:03002B0002079B2E
:10079B00C0E0C0F0C083C082C0D075D000C000C024
:1007AB0001C002C003C004C005C006C00730CF02A1
:1007BB00C2CF20CE030208C8C2CE7F05120C7275C1
:1007CB0019008F1AE51A751F00F51E7F04120C72A3
:1007DB007519008F1AE51A251FF51FE519351EF53A
:1007EB001E051FE51F7002051EFD7F04120CCDE5D3
:1007FB001EFD7F05120CCD851615851817E528C42F
:10080B00540F75F00AA4FFE528540F2FF516E529B0
:10081B00C4540F75F00AA4FFE529540F2FF518C324
:10082B00951750030208C8E518951775F03CA425D9
:10083B0016C39515F51DFB7E087FCAFD7C001209BA
:10084B00818E1B8F1C7C037DE8120981EF2430F510
:10085B000FAE1BAF1C7C037DE81209817E007F6409
:10086B00CFCDCFCECCCE120981EF2430F510AE1BFD
:10087B00AF1C7C007D641209817E007F0ACFCDCF37
:10088B00CECCCE120981EF2430F511AE1BAF1C7C00
:10089B00007D0A120981ED2430F51275132E7E5757
:1008AB007FE4AD037C00120981EF241CFFEE34A81A
:1008BB00FE7C007D0A120981ED2430F514D007D09F
:1008CB0006D005D004D003D002D001D000D0D0D0B8
:0808DB0082D083D0F0D0E0329E
:1008EF00020B22E493A3F8E493A34003F68001F2F2
:1008FF0008DFF48029E493A3F85407240CC8C3330A
:10090F00C4540F4420C8834004F456800146F6DFD8
:10091F00E4800B0102040810204080900AF3E47E6B
:10092F00019360BCA3FF543F30E509541FFEE493CD
:10093F00A360010ECF54C025E060A840B8E493A394
:10094F00FAE493A3F8E493A3C8C582C8CAC583CABF
:10095F00F0A3C8C582C8CAC583CADFE9DEE780BE77
:010B210000D3
:10096F00EF8DF0A4A8F0CF8CF0A428CE8DF0A42E9C
:02097F00FE2256
:10098100BC000BBE0029EF8DF084FFADF022E4CC5A
:10099100F875F008EF2FFFEE33FEEC33FCEE9DEC23
:1009A100984005FCEE9DFE0FD5F0E9E4CEFD22ED69
:1009B100F8F5F0EE8420D21CFEADF075F008EF2FB3
:1009C100FFED33FD4007985006D5F0F222C398FDA4
:0509D1000FD5F0EA2241
:00000001FF
