:0300000002000EED
:0C000E00787FE4F6D8FD75810B020055E8
:0A0100001200E2D2AF12009A80FB59
:0C00F300010800010A00010B00010900D7
:10009A00300044C200050BE50BC394644029E4F523
:1000AA000BE5096010050AE50A94634017750A63AF
:1000BA00E4F509800F150AE50AD394005006E4F521
:1000CA000A750901850A08E508D394004006E4F593
:0800DA00901508227590FF2229
:1000E2005389F0438901758CFF758A38D28CD2A965
:0100F20022EB
:03000B0002010AE5
:09010A00758CFF758A38D20032B1
:10001A00020100E493A3F8E493A34003F68001F2FB
:10002A0008DFF48029E493A3F85407240CC8C333E7
:10003A00C4540F4420C8834004F456800146F6DFB6
:10004A00E4800B01020408102040809000F3E47E53
:10005A00019360BCA3FF543F30E509541FFEE493AB
:10006A00A360010ECF54C025E060A840B8E493A372
:10007A00FAE493A3F8E493A3C8C582C8CAC583CA9D
:10008A00F0A3C8C582C8CAC583CADFE9DEE780BE55
:0100FF000000
:00000001FF
