:100C72001213C61213D81213E9121371758E0112D0
:100C8200001E121146D2AF12002E12140B300D05A7
:100C92001200278003121422300605C2061211D751
:100CA200E50E14602614603F146058240370D87B4C
:100CB200007A007922120840A208B00950C9C2087D
:100CC2007B007A00792212104480BC7B007A007982
:100CD2002B120840A208B00950ADC2087B007A006E
:100CE200792B12109D80A07B007A00793412084083
:100CF200A208B0095091C2087B007A007934120927
:100D0200B480847B007A007957120840A207B00EA3
:0D0D12004003020C89C207120E55020C8925
:10128A003F065B4F666D7D077F6F777C395E7971AC
:10129A0040637200BF86DBCFE6EDFD87FFEF763055
:1012AA0038332737313E3C1E5C3E6E73750E525200
:0212BA000052E0
:100D1F00C109C10A183F020000002D00002D00007C
:100D2F002D002D00002D00002D00002D0000013E94
:040D3F0007013D006B
:071414008F80D2A6C2A622C0
:1013A0007480A807088002C313D8FCF4F580D2A784
:0213B000C2A7D2
:0113B2002218
:061255008B6B8A6C896DB1
:10125B00A203820A5028C203AB6BAA6CA96D853E10
:10126B0082758300120AB8FF900008120AB8853EF7
:0E127B0082758300120AF7900008EF120AF73E
:011289002242
:060840008B688A69896AD9
:100846002001030209B3C2017F081213A0AB68AAF4
:1008560069A96A853D82758300120AB8FFC39400B0
:100866004006EFD3940F400CEFC39414400DEFD322
:10087600941D5007EF90128A020994AB68AA69A9E1
:100886006A853D82758300120AB8FEB42D07901260
:100896009AE4020994EEB42E0790129BE40209949E
:1008A600AB68AA69A96A853D82758300120AB8FEFB
:1008B600B4520790129CE4020994EEB420079012F9
:1008C6009DE4020994AB68AA69A96A853D8275838D
:1008D60000120AB8FEB448079012A8E4020994EE82
:1008E600B449079012A9E4020994AB68AA69A96AF7
:1008F600853D82758300120AB8FEB44C079012AA91
:10090600E4020994EEB44D079012ABE4020994ABED
:1009160068AA69A96A853D82758300120AB8FEB481
:100926006D069012ACE48066EEB44E069012ADE40D
:10093600805CAB68AA69A96A853D82758300120A44
:10094600B8FEB454069012AEE48043EEB455069059
:1009560012AFE48039AB68AA69A96A853D827583BE
:1009660000120AB8FEB457069012B0E48020EEB426
:1009760077069012B1E48016AB68AA69A96A853D2C
:1009860082758300120AB8B46F099012B2E493FF1D
:10099600121414AF3D1213A0053DE53DD394074054
:0D09A60003E4F53DAB68AA69A96A12125579
:0109B3002221
:100D430001640001660001670002620000026000A6
:100D530000016500C101C103C104C102C108C1078B
:060D6300C105C100C1063C
:1013D8005389F0438901758CF8758A30D28CD2A96B
:0113E80022E2
:1013E90053890F438910758DFF758B06D28ED2AB49
:0113F90022D1
:1013710075CBFF75CA3885CBCD85CACCC2CBC2C966
:0A138100C2C8E4F5C9D2ADD2CA22F9
:03000B00020FD50C
:100FD500C0E0C0D075D000C006C007758CF8758A12
:100FE50030D2010564D2027564000567E567B4195E
:100FF50005756700D2050566E566B4FA07D203D222
:10100500087566000561E56170020560FFAE60BEAA
:10101500050BBFDC08756000756100D2040563E54A
:101025006370020562FFAE62BE030BBFE80875621E
:0F10350000756300D207D007D006D0D0D0E032CC
:03001B0002133B92
:10133B00C0E0C0D0758DFF758B060565E565C39460
:0B134B00FA4003756500D0D0D0E032FE
:03002B00020006CA
:05000600C2CFD206325A
:090D6900016F0001700001710F1F
:09001E00D290D291D292D2932229
:101356002090037F0E222091037F0D222092037F8F
:0B1366000B222093037F07227F0F2241
:100F56007F0F121356E56F14601A14602114602F68
:100F660014604514605D24057061EF640F605C7564
:100F76006F018057EF640F604F756F02804DEF640D
:100F86000F600A8F71430780756F03803E8039EFCB
:100F9600640F602A0570E570D39464402EE4F57002
:100FA600430740756F048023EF640F60110570E5F9
:100FB60070D394194015E4F570430720800D756FC2
:0F0FC600058008437110AF71E4F56FEF020AE583
:10002E00E4F56920020302083FC202FB7A007968F8
:10003E00120F56E56854F0FFBF8002D20DBF1002BA
:10004E00C20DE568B41D0D20090A050EE50EB405B6
:10005E0003E4F50EE568B41B0E20090BE50E7005E2
:10006E00750E048002150EE50E14700302024C1478
:10007E00700302071B14700302079A240360030225
:10008E00083FE568641E702BD209C20A7422253E11
:10009E00F8E6B42005A62A752A20053ED20AE53ECA
:1000AE0064026005E53EB40502053EE53EB4080374
:1000BE00E4F53EE568641D600302015D200903025C
:1000CE00015DC20A7422253EF8E6B42005A62A7503
:1000DE002A20E53E700EE522B40205E4F522806D7D
:1000EE0005228069E53E6401701EE522B4020BE52F
:1000FE0023B40302800905238053E523B40905E4E4
:10010E00F523804905238045E53EB4030EE525B46D
:10011E000505E4F525803605258032E53EB4040E4E
:10012E00E526B40905E4F52680230526801FE53E65
:10013E00B4060EE528B40505E4F5288010052880E0
:10014E000CE529B40905E4F52980020529D20AE552
:10015E0068641B60030201F52009030201F5C20A5F
:10016E007422253EF8E6B42005A62A752A20E53E1F
:10017E00700DE5227005752202806A15228066E5F3
:10018E003E6401701FE522B4020DE5237005752350
:10019E000380521523804EE5237005752309804593
:1001AE0015238041E53EB4030DE525700575250543
:1001BE0080331525802FE53EB4040DE526700575B8
:1001CE00260980211526801DE53EB4060DE5287012
:1001DE0005752805800F1528800BE52970057529F2
:1001EE000980021529D20AE5686417600302083FE8
:1001FE0020090302083FC20A7422253EF8E6B42005
:10020E0005A62A752A20E52275F00AA47C0025236E
:10021E00FFEC35F0FED3EF9417EE64809480501B04
:10022E00E522C454F04523FFE525C454F04526FDD0
:10023E00E528C454F04529FB1212FDC20922E568D7
:10024E00641E702BD209C20A742B253EF8E6B42028
:10025E0005A633753320053ED20AE53E64026005DD
:10026E00E53EB40502053EE53EB40803E4F53EE581
:10027E0068641D6003020422200903020422C20ADC
:10028E00742B253EF8E6B42005A633753320E53EE3
:10029E007010E52BB40906E4F52B020420052B02A1
:1002AE000420E53EB40110E52CB40906E4F52C0259
:1002BE000420052C020420E53EB40310E52EB40103
:1002CE0006E4F52E020420052E020420E53E640409
:1002DE007029E52EB40112E52FC394024006E4F511
:1002EE002F020420052F020420E52FC39409400697
:1002FE00752F01020420052F020420E53E640670CE
:10030E0029E52E7013E52FB4020EE531C394024099
:10031E0002800C0531020420E531C394034006E44B
:10032E00F5310204200531020420E52E705BE52F25
:10033E0064027055E52B75F00AA4252C5403701336
:10034E00E532C394094007E5317014020409053201
:10035E00020420E531B4020FE532C39408400302D3
:10036E0004190532020420E531B4010FE532C394BD
:10037E000940030204190532020420E532C3940930
:10038E00400280770532020420E52E701EE52F64B0
:10039E00016026E52F64036020E52F6405601AE5F1
:1003AE002F64076014E52F6408600EE52E6401705B
:1003BE0038E52F600464027030E531B4030DE53288
:1003CE00C394014002804405328047E531700DE54B
:1003DE0032C394094002802305328036E532C3943D
:1003EE00094002802605328029E531B40302801BC4
:1003FE00E5317010E532C394094005753201801263
:10040E000532800EE532C394094005E4F5328002D0
:10041E000532D20AE568641B60030205BF2009039A
:10042E000205BFC20A742B253EF8E6B42005A6339A
:10043E00753320E53E700FE52B7006752B0902050E
:10044E00BD152B0205BDE53EB4010FE52C700675FA
:10045E002C090205BD152C0205BDE53EB4030FE5C2
:10046E002E7006752E010205BD152E0205BDE53E48
:10047E0064047024E52EB4010FE52F7006752F026B
:10048E000205BD152F0205BDE52FB40106752F0916
:10049E000205BD152F0205BDE53E64067027E52E4B
:1004AE007014E52FB4020FE53170067531020205A6
:1004BE00BD15310205BDE53170067531030205BD6E
:1004CE0015310205BDE52E7060E52F6402705AE508
:1004DE002B75F00AA4252C5403701DE531700DE523
:1004EE0032B401030205B615320205BDE5327003C2
:1004FE000205B615320205BDE531B4020FE53270C4
:10050E00067532080205BD15320205BDE531700DC6
:10051E00E532B401030205B615320205BDE53270AF
:10052E00030205B615320205BDE52E701EE52F64D9
:10053E0001602DE52F64036027E52F64056021E53A
:10054E002F6407601BE52F64086015E52EB40104C7
:10055E00E52F600CE52E64017031E52F6402702BDF
:10056E00E531B4030DE53270057532018041153267
:10057E00803DE531700BE532B40102802B153280DF
:10058E002EE5327002802115328024E531B4030548
:10059E00E4F532801AE531700BE532B401028008C1
:1005AE001532800BE532700575320980021532D294
:1005BE000AE5686417600302083F20090302083F3A
:1005CE00C20A742B253EF8E6B42005A633753320F7
:1005DE00E52E75F00AA47C00252FFFEC35F0FEEF1A
:1005EE0064014E6024EF64034E601EEF64054E609E
:1005FE0018EF64074E6012EF64084E600CEF640A49
:10060E004E6006EF640C4E7035E53175F00AA47C31
:10061E00002532FFEC35F0FED3EF941FEE6480948C
:10062E0080501BE52BC454F0452CFFE52EC454F02E
:10063E00452FFDE531C454F04532FB12131CE52E57
:10064E0075F00AA47C00252FFFEC35F0FEEF640454
:10065E004E6012EF64064E600CEF64094E6006EFBA
:10066E00640B4E7035E53175F00AA47C002532FF1F
:10067E00EC35F0FED3EF941EEE64809480501BE5B3
:10068E002BC454F0452CFFE52EC454F0452FFDE548
:10069E0031C454F04532FB12131CE52E75F00AA43A
:1006AE007C00252FFFEC35F0FEEF64024E705BE50B
:1006BE002B75F00AA4252C5403701AE53175F00A37
:1006CE00A42532FFEC35F0FED3EF941DEE6480943A
:1006DE00805037801AE53175F00AA47C002532FF70
:1006EE00EC35F0FED3EF941CEE64809480501BE545
:1006FE002BC454F0452CFFE52EC454F0452FFDE5D8
:10070E0031C454F04532FB12131CC20922E568B401
:10071E001E11D209C20AE53BB42006853C3B753C4E
:10072E0020D20AE568B41D1C300919C20AE53BB493
:10073E002006853C3B753C20053BE53BB408037524
:10074E003B01D20AE568B41B18300915C20AE53B15
:10075E00B42006853C3B753C20D53B03753B07D248
:10076E000AE56864177025300922C20AE53BB420F9
:10077E0006853C3B753C20E53BD39407500CE53B8E
:10078E00C394014005AF3B1213B3C209E568641E62
:10079E007027D20EC20A74572569F8E6B42005A652
:1007AE005F755F20D20A0569E569D39401500AE5A9
:1007BE0069C394054003756901E568641D703630A0
:1007CE000E33C20A74572569F8E6B42005A65F7584
:1007DE005F20E569B4020EE559B41D057559148004
:1007EE00120559800E74572569F8E6B40904E4F62B
:1007FE00800106D20AE568641B7036300E33C20AD9
:10080E0074572569F8E6B42005A65F755F20E56983
:10081E00B4020EE559B4140575591D801115598091
:10082E000D74572569F8E670047609800116D20A10
:01083E002297
:01083F002296
:100D7200092200002D00002D000020092B00002D6B
:100D820000002D00002009342D2D2D2D2D2D2D009C
:010D92002040
:0612DE00C2A2C2A0D2A2D0
:1012E4007E080000EF30E004D2A18002C2A1EFC367
:0812F40013FFD2A0C2A0DEEA44
:0112FC0022CF
:1012BC0000007E08EFC313FF0000000030A10543BF
:1012CC000780800353077FD2A00000C2A00000DE7D
:0112DC00E32E
:0112DD0022EE
:08138B00AC07AA05E4FD7F8E0A
:0D1393001212DEAF051212E4C2A2D2A02297
:0A000E001212DE1212BCC2A2D2A030
:0100180022C5
:101146007FC112000EEF64F0604012138F7D147F92
:101156008C1213937D067F881213931D7F861213BC
:10116600931D7F8A1213937D107F841213937D2023
:101176007F821213937D307F801213937DF07FC0A0
:0B1186001213937D807F8E12139322C2
:1012FD0012138BAD047F84121393AD027F821213F0
:0F130D0093AD037F801213937D807F8E02139325
:10131C0012138BAD047F8C121393AD027F881213C2
:0F132C0093AD037F861213937D807F8E02139300
:1013B300AC0712138FAD047F8A1213937D807F8E47
:0313C3000213937F
:101044007F8112000EAD077F8312000EAC077F85EF
:1010540012000EEFC4540F120AE5EF540F90000172
:10106400120AF7900002742D120AF7ECC4540F9080
:101074000003120AF7EC540F900004120AF79000D0
:1010840005742D120AF7EDC4540F900006120AF7E6
:09109400ED540F900007020AF769
:10109D007F8712000EAD077F8912000EAC077F8D82
:1010AD0012000EEFC4540F120AE5EF540F90000119
:1010BD00120AF7900002742D120AF7ECC4540F9027
:1010CD000003120AF7EC540F900004120AF7900077
:1010DD0005742D120AF7EDC4540F900006120AF78D
:0910ED00ED540F900007020AF710
:1009B4007F8B12000E900007EF120AF790000712C7
:1009C4000AB814B407004003020AB79009DD75F0B1
:1009D40003A4C58325F0C583730209F2020A0E023B
:1009E4000A2A020A46020A62020A7E020A9A744D1E
:1009F400120AE5900001746D120AF7900002E412E5
:100A04000AF7900003744E020AB47454120AE59073
:100A1400000104120AF7900002740E120AF7900003
:100A2400037405020AB47457120AE590000174773E
:100A3400120AF7900002740E120AF7900003740D64
:100A4400806E7454120AE59000017448120AF790FB
:100A540000027455120AF790000374528052740F06
:100A6400120AE59000017452120AF79000027449C8
:100A7400120AF7900003742D80367405120AE5906B
:100A84000001740A120AF79000027454120AF790D3
:100A94000003742D801A7405120AE5900001745540
:100AA400120AF7900002744E120AF7900003742D94
:040AB400120AF72209
:0D0D9300C10D091601022D03042D050620D7
:03002700B2B7224B
:03142200D2B7221C
:0D0DA00009572033303030202E0C20C10EBA
:1013FA00D2B300C2B37F5012141BD2B37F0E0214B1
:01140A001BC6
:021217008F6CDA
:10121900E4F56DC2AFF56DE56C20E00FD2B30000C7
:10122900C2B37F0812141BD2B3800FD2B30000C21D
:10123900B30000D2B37F0812141BE56CC313F56C1D
:0B124900056DE56DC3940840CED2AFE8
:011254002277
:10119100E4F56CF56DF56EC2AFF56CD2B30000C22B
:1011A100B3E56DC313F56DE56E13F56ED2B30000B3
:1011B10000000030B305436E808006536E7F756D6D
:1011C100007F0812141B056CE56CC3940840CCD257
:0511D100AFAE6DAF6E32
:0111D60022F6
:1010F600E4F56AF56BFFFEFDFC1213FA7F05121488
:101106001B7FCC1212177F0512141B7F4412121775
:101116001213FA7F0512141B7FCC1212177F0512C9
:10112600141B7FBE1212177F0512141B1211918E0B
:0F1136006A8F6B121191EF456AFCE56BAE04FFF7
:011145002287
:100E55001210F68E688F69E569540FFB7A00E56814
:100E650030E70575572D8003755720E568C4F8549C
:100E7500F0C868F568E569C4540F48F569AE68FFC0
:100E85007C007D0A120B2B8F58AE68AF697C007D04
:100E95000A120B2B8D5974142559F5597C007D6464
:100EA500AF03AE02120B19AA06AB07EAC4F854F059
:100EB500C868FAEBC4540F48FB7D0AFFAE02120B5B
:100EC5002B8F5AAE02AF037C007D0A120B2B8D5B74
:010ED50022FA
:07141B00AE071FEE70FA227C
:100DAD00C10BC10C010800010900010A00010B0073
:1013C600D288D2A8E4F50EF50FF510F511F512F551
:0213D6001322E0
:03000300020ED614
:040ED600C0E0C0D0E8
:100EDA0085650B756500E508146011146028240205
:100EEA007065750801756500D28E805BE50BC39449
:100EFA0032400CE50BD3943C5005750802804875C6
:100F0A000800C28E8041E50AC313F50AE50BD394A3
:100F1A0007400AE50BD3940C5003430A800509E500
:100F2A0009B40803850A0DE509B41003850A15E515
:100F3A0009B41803850A0CE509B4200B850A14C202
:070F4A008E75090075080017
:050F5100D0D0D0E03219
:100BA600E514F4650C6003020C71E50D6003020C9C
:100BB600717515FFE50C120B800C2E070C07080C3F
:100BC60054090BF80C0C22150BF3160BFD180C0C24
:100BD6001C0C47400C16420C58430C3B440C204A54
:100BE6000C1B520C115A0C025E00000C5CE4F50F53
:100BF6008070750F01806B750F028066750F03801C
:100C060061750F04805C750F058057750F0680525D
:100C1600750F07804D750F0880488010050FE50F8A
:100C2600640A703EF50F803AE50F7005750F09806E
:100C360031150F802D050EE50E64047025F50E8026
:100C460021E50E7005750E048018150E8014B20B82
:100C56008010B20D800C850D10851511850C12853E
:0C0C66001413E4F50DF515F50CF514223F
:09140B00300505C205120BA622F2
:0B0DBD00017200017300017400C10FFF
:03142500C294224C
:03142800D2942239
:1011D7000574E574C394644026E4F574300F0F0575
:1011E70073E57394634015757363C20F800E1573AF
:1011F700E573D394005005E4F573D20F857372E558
:1012070072D3940040061214251572221214282254
:03000000020DC925
:0C0DC900787FE4F6D8FD758174020E10EE
:100AB800BB010CE58229F582E5833AF583E02250F3
:100AC80006E92582F8E622BBFE06E92582F8E2223D
:0D0AD800E58229F582E5833AF583E4932257
:100AE500BB010689828A83F0225002F722BBFE01F0
:020AF500F322EA
:100AF700F8BB010DE58229F582E5833AF583E8F035
:100B0700225006E92582C8F622BBFE05E92582C8E0
:020B1700F222C8
:100B1900EF8DF0A4A8F0CF8CF0A428CE8DF0A42EF0
:020B2900FE22AA
:100B2B00BC000BBE0029EF8DF084FFADF022E4CCAE
:100B3B00F875F008EF2FFFEE33FEEC33FCEE9DEC77
:100B4B00984005FCEE9DFE0FD5F0E9E4CEFD22EDBD
:100B5B00F8F5F0EE8420D21CFEADF075F008EF2F07
:100B6B00FFED33FD4007985006D5F0F222C398FDF8
:050B7B000FD5F0EA2295
:100B8000D083D082F8E4937012740193700DA3A304
:100B900093F8740193F5828883E473740293686018
:060BA000EFA3A3A380DF18
:100DD500020C72E493A3F8E493A34003F68001F2B6
:100DE50008DFF48029E493A3F85407240CC8C3331F
:100DF500C4540F4420C8834004F456800146F6DFEE
:100E0500E4800B0102040810204080900D1FE47E51
:100E1500019360BCA3FF543F30E509541FFEE493E2
:100E2500A360010ECF54C025E060A840B8E493A3A9
:100E3500FAE493A3F8E493A3C8C582C8CAC583CAD4
:100E4500F0A3C8C582C8CAC583CADFE9DEE780BE8C
:010DC800002A
:00000001FF
