:0300000002000EED
:0C000E00787FE4F6D8FD75810B020055E8
:0D00CA001200B9D2AF1200D712009A80F8D0
:1000B9005389F0438901758CFC758A18D28CD2A9B1
:0100C9002214
:03000B000200ED03
:0900ED00758CFC758A18D20032F2
:0A00E20002090000010800010B00F4
:0B00D700E5087003F590227590FF22F1
:10009A0030001BC200050AE50A70020509C3940A6A
:0F00AA00E50994004008E4F509F50A6308FF2210
:10001A000200CAE493A3F8E493A34003F68001F232
:10002A0008DFF48029E493A3F85407240CC8C333E7
:10003A00C4540F4420C8834004F456800146F6DFB6
:10004A00E4800B01020408102040809000E2E47E64
:10005A00019360BCA3FF543F30E509541FFEE493AB
:10006A00A360010ECF54C025E060A840B8E493A372
:10007A00FAE493A3F8E493A3C8C582C8CAC583CA9D
:10008A00F0A3C8C582C8CAC583CADFE9DEE780BE55
:0100EC000013
:00000001FF
