:03000000020800F3
:0C080000787FE4F6D8FD758120020847DF
:0D09A900C100021400000212000001110044
:1009C400E4F5CBF5CA85CBCD85CACCD2CBD2C9D27E
:0809D400C8F5C9C2CAD2AD2268
:03002B0002090EB9
:10090E00C0E0C0F0C0D075D000C000C004C005C0AB
:10091E0006C00730CF040511C2CF30CE23C2CE059C
:10092E0015E51570020514AE14FF7C007D0A120841
:10093E00B98F09AE14AF157C007D0A1208B98D0A65
:10094E00D007D006D005D004D000D0D0D0F0D0E063
:01095E003266
:0B0A29003F065B4F666D7D077F6F404E
:0D09B600080900000000000000000108001A
:070A34008F80D2A6C2A622AA
:1009F2007401A807088002C333D8FCF4F580D2A79B
:020A0200C2A789
:010A040022CF
:06095F008B168A178918AF
:10096500E51A4519603DE4F519F51A7F081209F2F3
:10097500AB16AA17A91885088275830012088CFE84
:10098500B42D06900A33E48004EE900A2993FF12F1
:100995000A34AF081209F20508E508D394074003A5
:0309A500E4F5086E
:0109A800222C
:1009DC00120A181209C4D2AF7590FF7B007A007905
:0609EC000912095F80F50D
:100A18005389F0438901758CF8758A30D28CD2A934
:010A280022AB
:03000B00020A05E1
:100A0500C0E0758CF8758A30051AE51A700205196B
:030A1500D0E032FC
:10080C000209DCE493A3F8E493A34003F68001F21D
:10081C0008DFF48029E493A3F85407240CC8C333ED
:10082C00C4540F4420C8834004F456800146F6DFBC
:10083C00E4800B01020408102040809009A9E47E9A
:10084C00019360BCA3FF543F30E509541FFEE493B1
:10085C00A360010ECF54C025E060A840B8E493A378
:10086C00FAE493A3F8E493A3C8C582C8CAC583CAA3
:10087C00F0A3C8C582C8CAC583CADFE9DEE780BE5B
:0109C3000033
:10088C00BB010CE58229F582E5833AF583E0225021
:10089C0006E92582F8E622BBFE06E92582F8E2226B
:0D08AC00E58229F582E5833AF583E4932285
:1008B900BC000BBE0029EF8DF084FFADF022E4CC23
:1008C900F875F008EF2FFFEE33FEEC33FCEE9DECEC
:1008D900984005FCEE9DFE0FD5F0E9E4CEFD22ED32
:1008E900F8F5F0EE8420D21CFEADF075F008EF2F7C
:1008F900FFED33FD4007985006D5F0F222C398FD6D
:050909000FD5F0EA2209
:00000001FF
