:030E5000011F007F
:1009B4001214B81214CA1214DB121430758E0112F8
:1009C4001506121205D2AF12002E12150F300605AD
:1009D400C2061212D412001EE50E14602F146048D1
:1009E400146061146078147003020AA2240570D79D
:1009F4007B007A007922120840A208B00950C8C2CC
:100A0400087B007A00792212110380BB7B007A00F4
:100A1400792B120840A208B00950ACC2087B007AB6
:100A240000792B12115C809F7B007A0079341208C4
:100A340040A208B0095090C2087B007A00793412B1
:100A44000AC580837B007A007916120840A207B099
:100A54000D40030209CBC2071210030209CB7B002D
:100A64007A00793E120840E510C4540FF53EE510B3
:100A7400540FF53FE511C4540FF540E511540FF53B
:100A840041E512C4540FF542E512540FF543E51342
:100A9400C4540FF544E513540FF5450209CB7B000C
:100AA4007A00793E1208402005030209CBC20505ED
:100AB4001FE51FC3940550030209CBE4F51F020987
:010AC400CB66
:101347003F065B4F666D7D077F6F777C395E7971EE
:1013570040637200BF86DBCFE6EDFD87FFEF763097
:1013670038332737313E3C1E5C3E6E73750E525242
:02137700005222
:100E5300C109C10A093E00002D00002D0000200138
:050E63004707013D00FE
:0914FD00EFF4F580D2A6C2A6228C
:1014A6007480A807088002C313D8FCF580D2A7C2AF
:0114B600A78E
:0114B7002212
:061312008B5B8A5C895D23
:10131800A202820A5028C202AB5BAA5CA95D85477B
:1013280082758300120BC9FF900008120BC985470C
:0E13380082758300120C08900008EF120C085A
:011346002284
:060840008B588A59895A09
:100846002000030209B3C2007F081214A6AB58AAFF
:1008560059A95A853D82758300120BC9FFC39400BE
:100866004006EFD3940F400CEFC39414400DEFD322
:10087600941D5007EF901347020994AB58AA59A943
:100886005A853D82758300120BC9FEB42D0790135D
:1008960057E4020994EEB42E07901358E402099423
:1008A600AB58AA59A95A853D82758300120BC9FE19
:1008B600B45207901359E4020994EEB4200790133A
:1008C6005AE4020994AB58AA59A95A853D82758300
:1008D60000120BC9FEB44807901365E4020994EEB2
:1008E600B44907901366E4020994AB58AA59A95A69
:1008F600853D82758300120BC9FEB44C07901367C1
:10090600E4020994EEB44D07901368E4020994AB2F
:1009160058AA59A95A853D82758300120BC9FEB49F
:100926006D06901369E48066EEB44E0690136AE491
:10093600805CAB58AA59A95A853D82758300120B73
:10094600C9FEB4540690136BE48043EEB45506908A
:10095600136CE48039AB58AA59A95A853D82758330
:1009660000120BC9FEB4570690136DE48020EEB456
:10097600770690136EE48016AB58AA59A95A853D9E
:1009860082758300120BC9B46F0990136FE493FF4D
:100996001214FDAF3D1214A6053DE53DD394074064
:0D09A60003E4F53DAB58AA59A95A121312EB
:0109B3002221
:100E6800015700C100C102C106C101C104C108C1C6
:100E780007C103C1050151000152000253000002DD
:030E880055000012
:1014CA005389F0438901758CF8758A30D28CD2A978
:0114DA0022EF
:03000B00020EEBF7
:100EEB00C0E0C0F0C083C082C0D075D000C000C0CD
:0D0EFB0001C002C003C004C005C006C0074E
:100F0800758CF8758A30D2000551D201D20475511A
:100F1800000552E552B4FA07D202D208755200050C
:100F280054E55470020553FFAE53BE030BBFE808E7
:100F3800755300755400D2070556E55670020555DD
:100F4800FFAE55E4FCFD7BFF7AFFF9F8C3120C9164
:040F58007002D2054C
:100F5C00D007D006D005D004D003D002D001D000E9
:0B0F6C00D0D0D082D083D0F0D0E03293
:1014DB0053890F438910758DFF758B1AD28ED2AB42
:0114EB0022DE
:03001B000213F8D5
:1013F800C0E0C0D0758DFF758B1AD2030557E5572D
:0D140800C394FA4003755700D0D0D0E032F5
:1014300075CBFF75CA3885CBCD85CACCC2CBC2C9A6
:0A144000C2C8E4F5C9D2ADD2CA2239
:03002B00020006CA
:05000600C2CFD206325A
:090E8B00015F0001600001610F2C
:09150600D290D291D292D293222C
:101415002090037F0E222091037F0D222092037FCF
:0B1425000B222093037F07227F0F2281
:101084007F0F121415E55F14601A14602114602F89
:1010940014604514605D24057061EF640F605C7535
:1010A4005F018057EF640F604F755F02804DEF64FE
:1010B4000F600A8F61430780755F03803E8039EFBC
:1010C400640F602A0560E560D39464402EE4F56003
:1010D400430740755F048023EF640F60110560E5EA
:1010E40060D394194015E4F560430720800D755FC3
:0F10F400058008436110AF61E4F55FEF020BF672
:10002E00E4F55920010302083FC201FB7A0079581A
:10003E00121084E55854F0FFBF8002D20FBF100299
:10004E00C20FE558B41D0D20090A050EE50EB406C3
:10005E0003E4F50EE558B41B0E20090BE50E7005F2
:10006E00750E058002150EE50E14700302024C1477
:10007E00700302071B14700302079A240360030225
:10008E00083FE558641E702BD209C20A7422254718
:10009E00F8E6B42005A62A752A200547D20AE547B8
:1000AE0064026005E547B405020547E547B4080359
:1000BE00E4F547E558641D600302015D2009030263
:1000CE00015DC20A74222547F8E6B42005A62A75FA
:1000DE002A20E547700EE522B40205E4F522806D74
:1000EE0005228069E5476401701EE522B4020BE526
:1000FE0023B40302800905238053E523B40905E4E4
:10010E00F523804905238045E547B4030EE525B464
:10011E000505E4F525803605258032E547B4040E45
:10012E00E526B40905E4F52680230526801FE5475C
:10013E00B4060EE528B40505E4F5288010052880E0
:10014E000CE529B40905E4F52980020529D20AE552
:10015E0058641B60030201F52009030201F5C20A6F
:10016E0074222547F8E6B42005A62A752A20E5470D
:10017E00700DE5227005752202806A15228066E5F3
:10018E00476401701FE522B4020DE5237005752347
:10019E000380521523804EE5237005752309804593
:1001AE0015238041E547B4030DE52570057525053A
:1001BE0080331525802FE547B4040DE526700575AF
:1001CE00260980211526801DE547B4060DE5287009
:1001DE0005752805800F1528800BE52970057529F2
:1001EE000980021529D20AE5586417600302083FF8
:1001FE0020090302083FC20A74222547F8E6B420FC
:10020E0005A62A752A20E52275F00AA47C0025236E
:10021E00FFEC35F0FED3EF9417EE64809480501B04
:10022E00E522C454F04523FFE525C454F04526FDD0
:10023E00E528C454F04529FB1213BAC20922E55829
:10024E00641E702BD209C20A742B2547F8E6B4201F
:10025E0005A6337533200547D20AE54764026005CB
:10026E00E547B405020547E547B40803E4F547E55D
:10027E0058641D6003020422200903020422C20AEC
:10028E00742B2547F8E6B42005A633753320E547D1
:10029E007010E52BB40906E4F52B020420052B02A1
:1002AE000420E547B40110E52CB40906E4F52C0250
:1002BE000420052C020420E547B40310E52EB401FA
:1002CE0006E4F52E020420052E020420E547640400
:1002DE007029E52EB40112E52FC394024006E4F511
:1002EE002F020420052F020420E52FC39409400697
:1002FE00752F01020420052F020420E547640670C5
:10030E0029E52E7013E52FB4020EE531C394024099
:10031E0002800C0531020420E531C394034006E44B
:10032E00F5310204200531020420E52E705BE52F25
:10033E0064027055E52B75F00AA4252C5403701336
:10034E00E532C394094007E5317014020409053201
:10035E00020420E531B4020FE532C39408400302D3
:10036E0004190532020420E531B4010FE532C394BD
:10037E000940030204190532020420E532C3940930
:10038E00400280770532020420E52E701EE52F64B0
:10039E00016026E52F64036020E52F6405601AE5F1
:1003AE002F64076014E52F6408600EE52E6401705B
:1003BE0038E52F600464027030E531B4030DE53288
:1003CE00C394014002804405328047E531700DE54B
:1003DE0032C394094002802305328036E532C3943D
:1003EE00094002802605328029E531B40302801BC4
:1003FE00E5317010E532C394094005753201801263
:10040E000532800EE532C394094005E4F5328002D0
:10041E000532D20AE558641B60030205BF200903AA
:10042E000205BFC20A742B2547F8E6B42005A63391
:10043E00753320E547700FE52B7006752B09020505
:10044E00BD152B0205BDE547B4010FE52C700675F1
:10045E002C090205BD152C0205BDE547B4030FE5B9
:10046E002E7006752E010205BD152E0205BDE5473F
:10047E0064047024E52EB4010FE52F7006752F026B
:10048E000205BD152F0205BDE52FB40106752F0916
:10049E000205BD152F0205BDE54764067027E52E42
:1004AE007014E52FB4020FE53170067531020205A6
:1004BE00BD15310205BDE53170067531030205BD6E
:1004CE0015310205BDE52E7060E52F6402705AE508
:1004DE002B75F00AA4252C5403701DE531700DE523
:1004EE0032B401030205B615320205BDE5327003C2
:1004FE000205B615320205BDE531B4020FE53270C4
:10050E00067532080205BD15320205BDE531700DC6
:10051E00E532B401030205B615320205BDE53270AF
:10052E00030205B615320205BDE52E701EE52F64D9
:10053E0001602DE52F64036027E52F64056021E53A
:10054E002F6407601BE52F64086015E52EB40104C7
:10055E00E52F600CE52E64017031E52F6402702BDF
:10056E00E531B4030DE53270057532018041153267
:10057E00803DE531700BE532B40102802B153280DF
:10058E002EE5327002802115328024E531B4030548
:10059E00E4F532801AE531700BE532B401028008C1
:1005AE001532800BE532700575320980021532D294
:1005BE000AE5586417600302083F20090302083F4A
:1005CE00C20A742B2547F8E6B42005A633753320EE
:1005DE00E52E75F00AA47C00252FFFEC35F0FEEF1A
:1005EE0064014E6024EF64034E601EEF64054E609E
:1005FE0018EF64074E6012EF64084E600CEF640A49
:10060E004E6006EF640C4E7035E53175F00AA47C31
:10061E00002532FFEC35F0FED3EF941FEE6480948C
:10062E0080501BE52BC454F0452CFFE52EC454F02E
:10063E00452FFDE531C454F04532FB1213D9E52E9A
:10064E0075F00AA47C00252FFFEC35F0FEEF640454
:10065E004E6012EF64064E600CEF64094E6006EFBA
:10066E00640B4E7035E53175F00AA47C002532FF1F
:10067E00EC35F0FED3EF941EEE64809480501BE5B3
:10068E002BC454F0452CFFE52EC454F0452FFDE548
:10069E0031C454F04532FB1213D9E52E75F00AA47D
:1006AE007C00252FFFEC35F0FEEF64024E705BE50B
:1006BE002B75F00AA4252C5403701AE53175F00A37
:1006CE00A42532FFEC35F0FED3EF941DEE6480943A
:1006DE00805037801AE53175F00AA47C002532FF70
:1006EE00EC35F0FED3EF941CEE64809480501BE545
:1006FE002BC454F0452CFFE52EC454F0452FFDE5D8
:10070E0031C454F04532FB1213D9C20922E558B454
:10071E001E11D209C20AE53BB42006853C3B753C4E
:10072E0020D20AE558B41D1C300919C20AE53BB4A3
:10073E002006853C3B753C20053BE53BB408037524
:10074E003B01D20AE558B41B18300915C20AE53B25
:10075E00B42006853C3B753C20D53B03753B07D248
:10076E000AE55864177025300922C20AE53BB42009
:10077E0006853C3B753C20E53BD39407500CE53B8E
:10078E00C394014005AF3B121493C209E558641E91
:10079E007027D20DC20A74162559F8E6B42005A6A4
:1007AE001E751E20D20A0559E559D39401500AE54B
:1007BE0059C394054003755901E558641D703630D0
:1007CE000D33C20A74162559F8E6B42005A61E7517
:1007DE001E20E559B4020EE518B41D0575181480D7
:1007EE00120518800E74162559F8E6B40904E4F6BD
:1007FE00800106D20AE558641B7036300D33C20AEA
:10080E0074162559F8E6B42005A61E751E20E55966
:10081E00B4020EE518B4140575181D801115188054
:10082E000D74162559F8E670047609800116D20A61
:01083E002297
:01083F002296
:100E9400092200002D00002D000020092B00002D48
:100EA40000002D00002009342D2D2D2D2D2D2D0079
:010EB400201D
:06139B00C2A2C2A0D2A212
:1013A1007E080000EF30E004D2A18002C2A1EFC3A9
:0813B10013FFD2A0C2A0DEEA86
:0113B9002211
:1013790000007E08EFC313FF0000000030A1054301
:101389000780800353077FD2A00000C2A00000DEBF
:01139900E370
:01139A002230
:08147E00AC07AA05E4FD7F8E16
:0D14860012139BAF051213A1C2A2D2A02227
:0A000E0012139B121379C2A2D2A0B4
:0100180022C5
:101205007FC112000EEF64F060401214827D147FDE
:101215008C1214867D067F881214861D7F86121413
:10122500861D7F8A1214867D107F841214867D2088
:101235007F821214867D307F801214867DF07FC0F8
:0B1245001214867D807F8E121486221A
:1013BA0012147EAD047F84121486AD027F82121449
:0F13CA0086AD037F801214867D807F8E0214868D
:1013D90012147EAD047F8C121486AD027F8812141C
:0F13E90086AD037F861214867D807F8E02148668
:10149300AC07121482AD047F8A1214867D807F8E7E
:0314A300021486AA
:101103007F8112000EAD077F8312000EAC077F852F
:1011130012000EEFC4540F120BF6EF540F900001A0
:10112300120C08900002742D120C08ECC4540F909A
:101133000003120C08EC540F900004120C089000EA
:1011430005742D120C08EDC4540F900006120C0800
:09115300ED540F900007020C0896
:10115C007F8712000EAD077F8912000EAC077F8DC2
:10116C0012000EEFC4540F120BF6EF540F90000147
:10117C00120C08900002742D120C08ECC4540F9041
:10118C000003120C08EC540F900004120C08900091
:10119C0005742D120C08EDC4540F900006120C08A7
:0911AC00ED540F900007020C083D
:100AC5007F8B12000E900007EF120C0890000712A2
:100AD5000BC914B407004003020BC8900AEE75F069
:100AE50003A4C58325F0C58373020B03020B1F0204
:100AF5000B3B020B57020B73020B8F020BAB744DB2
:100B0500120BF6900001746D120C08900002E412AD
:100B15000C08900003744E020BC57454120BF6902A
:100B2500000104120C08900002740E120C089000CB
:100B3500037405020BC57457120BF6900001747708
:100B4500120C08900002740E120C08900003740D2C
:100B5500806E7454120BF69000017448120C0890C4
:100B650000027455120C0890000374528052740FE1
:100B7500120BF69000017452120C08900002744991
:100B8500120C08900003742D80367405120BF69034
:100B95000001740A120C089000027454120C08909B
:100BA5000003742D801A7405120BF690000174551C
:100BB500120C08900002744E120C08900003742D5C
:040BC500120C0822E4
:0D0EB50009162033303030202E0C20C10DE6
:1014EC00D2A500C2A57F50121518D2A57F0E0215E9
:0114FC0018D7
:021296008F5C6B
:10129800E4F55DC2AFF55DE55C20E00FD2A5000086
:1012A800C2A57F08121518D2A5800FD2A50000C2CA
:1012B800A50000D2A57F08121518E55CC313F55CDC
:0B12C800055DE55DC3940840CED2AF89
:0112D30022F8
:10125000E4F55CF55DF55EC2AFF55CD2A50000C2B9
:10126000A5E55DC313F55DE55E13F55ED2A500004F
:1012700000000030A505435E808006535E7F755DEB
:10128000007F08121518055CE55CC3940840CCD2B9
:05129000AFAE5DAF5E92
:011295002236
:1011B500E4F55AF55BFFFEFDFC1214EC7F051215F4
:1011C500187FCC1212967F051215187F44121296BD
:1011D5001214EC7F051215187FCC1212967F05129A
:1011E50015187FBE1212967F051215181212508E11
:0F11F5005A8F5B121250EF455AFCE55BAE04FFB8
:0112040022C7
:101003001211B58E588F59E559540FFB7A00E558E4
:1010130030E70575162D8003751620E558C4F8547E
:10102300F0C868F558E559C4540F48F559AE58FF50
:101033007C007D0A120C3C8F17AE58AF597C007DA3
:101043000A120C3C8D1874142518F5187C007D6465
:10105300AF03AE02120C2AAA06AB07EAC4F854F097
:10106300C868FAEBC4540F48FB7D0AFFAE02120CAA
:101073003C8F19AE02AF037C007D0A120C3C8D1A23
:01108300224A
:07151800AE071FEE70FA227E
:100EC200C10BC10C010800010900010A00010B005D
:1014B800D288D2A8E4F50EF50FF510F511F512F55E
:0214C8001322ED
:03000300020D9556
:100D9500C0E0C0F0C083C082C0D075D000C000C024
:0D0DA50001C002C003C004C005C006C007A5
:100DB20085570B755700E50814601314602F240241
:100DC2007071750801755700D28E7F01801AE50B8C
:100DD200C39432400CE50BD3943C50057508028055
:100DE20052750800C28E7F0212144A80467F031297
:100DF200144AE50AC313F50AE50BD39407400AE542
:100E02000BD3940C5003430A800509E509B4080387
:100E1200850A0DE509B41003850A15E509B418031E
:100E2200850A0CE509B4200B850A14C28E750900E7
:030E320075080040
:100E3500D007D006D005D004D003D002D001D00011
:0B0E4500D0D0D082D083D0F0D0E032BB
:100CCD00E514F4650C6003020D94E50D6003020D4F
:100CDD00947515FFE50C120CA70D7B070D2E080D55
:100CED0049090D1F0C0D55150D1A160D24180D3330
:100CFD001C0D6E400D3D420D62430D8B440D474A58
:100D0D000D42520D385A0D295E00000D7FE4F50F8E
:100D1D00806C750F018067750F028062750F0380FF
:100D2D005D750F048058750F058053750F06804E45
:100D3D00750F078049750F0880448010050FE50F6A
:100D4D00640A703AF50F8036E50F7005750F09804E
:100D5D002D150F8029050EE50E64047021F50E800A
:100D6D001DE50E7005750E048014150E8010B20B66
:100D7D00800C850D10851511850C12851413E4F565
:080D8D000DF515F50CF514221B
:09150F00300405C204120CCD22C7
:0B0ED200016200016300016400C10E1A
:10144A00EF14600D14600D14600D2403700BC2B309
:0A145A0022C2B422C2B522C2B6229B
:10146400EF14600D14600D14600D2403700BD2B3DF
:0A14740022D2B422D2B522D2B62251
:1012D4000564E564C394644026E4F564300E0F05A8
:1012E40063E56394634015756363C20E800E1563F2
:1012F400E563D394005005E4F563D20E856362E59B
:0D13040062D394004005C2B3156222D2B33B
:0113110022B9
:0D0EDD00C10F094801022D03042D05062058
:0B001E00300F07300304C203B2B7220A
:03000000020F7775
:0C0F7700787FE4F6D8FD758164020FBE9F
:100BC900BB010CE58229F582E5833AF583E02250E1
:100BD90006E92582F8E622BBFE06E92582F8E2222B
:0D0BE900E58229F582E5833AF583E4932245
:100BF600BB010689828A83F0225002F722BBFE01DE
:020C0600F322D7
:100C0800F8BB010DE58229F582E5833AF583E8F022
:100C1800225006E92582C8F622BBFE05E92582C8CE
:020C2800F222B6
:100C2A00EF8DF0A4A8F0CF8CF0A428CE8DF0A42EDE
:020C3A00FE2298
:100C3C00BC000BBE0029EF8DF084FFADF022E4CC9C
:100C4C00F875F008EF2FFFEE33FEEC33FCEE9DEC65
:100C5C00984005FCEE9DFE0FD5F0E9E4CEFD22EDAB
:100C6C00F8F5F0EE8420D21CFEADF075F008EF2FF5
:100C7C00FFED33FD4007985006D5F0F222C398FDE6
:050C8C000FD5F0EA2283
:100C9100EB9FF5F0EA9E42F0E99D42F0EC6480C8DA
:060CA10064809845F0227A
:100CA700D083D082F8E4937012740193700DA3A3DC
:100CB70093F8740193F5828883E4737402936860F0
:060CC700EFA3A3A380DFF0
:100F83000209B4E493A3F8E493A34003F68001F2C7
:100F930008DFF48029E493A3F85407240CC8C3336F
:100FA300C4540F4420C8834004F456800146F6DF3E
:100FB300E4800B0102040810204080900E50E47E70
:100FC300019360BCA3FF543F30E509541FFEE49333
:100FD300A360010ECF54C025E060A840B8E493A3FA
:100FE300FAE493A3F8E493A3C8C582C8CAC583CA25
:100FF300F0A3C8C582C8CAC583CADFE9DEE780BEDD
:010EEA000007
:00000001FF
